:10016C001410004000F900240030001900120002A5
:06017C0000F80000001075
:10012E00E4FDFCD3ED9FEC9E5015E4FBFA0BBB00F7
:0F013E00010AEB64334A70F50DBD00010C80E43B
:01014D00228F
:100183008E2C8F2DEF25E02410F808E6F5A07F01D3
:050193007E0002012EB8
:1000030020B21530B2FD0509E50970020508640A3E
:1000130045087004F508F50920B31530B3FD050B49
:10002300E50B7002050A640A450A7004F50AF50B2C
:1000330020B41530B4FD050DE50D7002050C640AFE
:10004300450C7004F50CF50D20B51530B5FD050F05
:10005300E50F7002050E640A450E7004F50EF50FE8
:10006300D293C290C292C291AF09AE08120183D259
:1000730092C293C291C290AF0BAE0A120183D29186
:10008300C293C290C292AF0DAE0C120183D290C242
:0F00930093C292C291AF0FAE0E1201830200030F
:10014E00E4F50EF50FF50CF50DF50AF50BF508F5C2
:0E015E0009D2B5D2B4D2B3D2B212000380FBE4
:030000000200A259
:0C00A200787FE4F6D8FD75812D0200E99E
:1000AE0002014EE493A3F8E493A34003F68001F219
:1000BE0008DFF48029E493A3F85407240CC8C33353
:1000CE00C4540F4420C8834004F456800146F6DF22
:1000DE00E4800B010204081020408090016CE47E45
:1000EE00019360BCA3FF543F30E509541FFEE49317
:1000FE00A360010ECF54C025E060A840B8E493A3DE
:10010E00FAE493A3F8E493A3C8C582C8CAC583CA08
:10011E00F0A3C8C582C8CAC583CADFE9DEE780BEC0
:01018200007C
:00000001FF
